{
  "_format": "hh-sol-artifact-1",
  "contractName": "BiometricAuth",
  "sourceName": "contracts/BiometricAuth.sol",
  "abi": [
    {
      "anonymous": false,
      "inputs": [
        {
          "indexed": true,
          "internalType": "address",
          "name": "user",
          "type": "address"
        },
        {
          "indexed": false,
          "internalType": "string",
          "name": "hash",
          "type": "string"
        }
      ],
      "name": "BiometricRegistered",
      "type": "event"
    },
    {
      "inputs": [
        {
          "internalType": "address",
          "name": "",
          "type": "address"
        }
      ],
      "name": "biometricHashes",
      "outputs": [
        {
          "internalType": "string",
          "name": "",
          "type": "string"
        }
      ],
      "stateMutability": "view",
      "type": "function"
    },
    {
      "inputs": [
        {
          "internalType": "string",
          "name": "_hash",
          "type": "string"
        }
      ],
      "name": "registerBiometric",
      "outputs": [],
      "stateMutability": "nonpayable",
      "type": "function"
    },
    {
      "inputs": [
        {
          "internalType": "address",
          "name": "_user",
          "type": "address"
        },
        {
          "internalType": "string",
          "name": "_hash",
          "type": "string"
        }
      ],
      "name": "verifyBiometric",
      "outputs": [
        {
          "internalType": "bool",
          "name": "",
          "type": "bool"
        }
      ],
      "stateMutability": "view",
      "type": "function"
    }
  ],
  "bytecode": "0x6080604052348015600f57600080fd5b50610a4e8061001f6000396000f3fe608060405234801561001057600080fd5b50600436106100415760003560e01c806319faa0e814610046578063db23351f14610062578063e9f38dcd14610092575b600080fd5b610060600480360381019061005b9190610403565b6100c2565b005b61007c600480360381019061007791906104aa565b6101a3565b6040516100899190610521565b60405180910390f35b6100ac60048036038101906100a7919061053c565b610209565b6040516100b991906105e8565b60405180910390f35b6000815111610106576040517f08c379a00000000000000000000000000000000000000000000000000000000081526004016100fd90610656565b60405180910390fd5b806000803373ffffffffffffffffffffffffffffffffffffffff1673ffffffffffffffffffffffffffffffffffffffff1681526020019081526020016000209081610151919061088c565b503373ffffffffffffffffffffffffffffffffffffffff167f89b71f9293e0fd29307b5626d30d09e1f486dff7f844b301face69c4319750508260405161019891906105e8565b60405180910390a250565b600081805190602001206000808573ffffffffffffffffffffffffffffffffffffffff1673ffffffffffffffffffffffffffffffffffffffff1681526020019081526020016000206040516101f89190610a01565b604051809103902014905092915050565b60006020528060005260406000206000915090508054610228906106a5565b80601f0160208091040260200160405190810160405280929190818152602001828054610254906106a5565b80156102a15780601f10610276576101008083540402835291602001916102a1565b820191906000526020600020905b81548152906001019060200180831161028457829003601f168201915b505050505081565b6000604051905090565b600080fd5b600080fd5b600080fd5b600080fd5b6000601f19601f8301169050919050565b7f4e487b7100000000000000000000000000000000000000000000000000000000600052604160045260246000fd5b610310826102c7565b810181811067ffffffffffffffff8211171561032f5761032e6102d8565b5b80604052505050565b60006103426102a9565b905061034e8282610307565b919050565b600067ffffffffffffffff82111561036e5761036d6102d8565b5b610377826102c7565b9050602081019050919050565b82818337600083830152505050565b60006103a66103a184610353565b610338565b9050828152602081018484840111156103c2576103c16102c2565b5b6103cd848285610384565b509392505050565b600082601f8301126103ea576103e96102bd565b5b81356103fa848260208601610393565b91505092915050565b600060208284031215610419576104186102b3565b5b600082013567ffffffffffffffff811115610437576104366102b8565b5b610443848285016103d5565b91505092915050565b600073ffffffffffffffffffffffffffffffffffffffff82169050919050565b60006104778261044c565b9050919050565b6104878161046c565b811461049257600080fd5b50565b6000813590506104a48161047e565b92915050565b600080604083850312156104c1576104c06102b3565b5b60006104cf85828601610495565b925050602083013567ffffffffffffffff8111156104f0576104ef6102b8565b5b6104fc858286016103d5565b9150509250929050565b60008115159050919050565b61051b81610506565b82525050565b60006020820190506105366000830184610512565b92915050565b600060208284031215610552576105516102b3565b5b600061056084828501610495565b91505092915050565b600081519050919050565b600082825260208201905092915050565b60005b838110156105a3578082015181840152602081019050610588565b60008484015250505050565b60006105ba82610569565b6105c48185610574565b93506105d4818560208601610585565b6105dd816102c7565b840191505092915050565b6000602082019050818103600083015261060281846105af565b905092915050565b7f486173682063616e6e6f7420626520656d707479000000000000000000000000600082015250565b6000610640601483610574565b915061064b8261060a565b602082019050919050565b6000602082019050818103600083015261066f81610633565b9050919050565b7f4e487b7100000000000000000000000000000000000000000000000000000000600052602260045260246000fd5b600060028204905060018216806106bd57607f821691505b6020821081036106d0576106cf610676565b5b50919050565b60008190508160005260206000209050919050565b60006020601f8301049050919050565b600082821b905092915050565b6000600883026107387fffffffffffffffffffffffffffffffffffffffffffffffffffffffffffffffff826106fb565b61074286836106fb565b95508019841693508086168417925050509392505050565b6000819050919050565b6000819050919050565b600061078961078461077f8461075a565b610764565b61075a565b9050919050565b6000819050919050565b6107a38361076e565b6107b76107af82610790565b848454610708565b825550505050565b600090565b6107cc6107bf565b6107d781848461079a565b505050565b5b818110156107fb576107f06000826107c4565b6001810190506107dd565b5050565b601f82111561084057610811816106d6565b61081a846106eb565b81016020851015610829578190505b61083d610835856106eb565b8301826107dc565b50505b505050565b600082821c905092915050565b600061086360001984600802610845565b1980831691505092915050565b600061087c8383610852565b9150826002028217905092915050565b61089582610569565b67ffffffffffffffff8111156108ae576108ad6102d8565b5b6108b882546106a5565b6108c38282856107ff565b600060209050601f8311600181146108f657600084156108e4578287015190505b6108ee8582610870565b865550610956565b601f198416610904866106d6565b60005b8281101561092c57848901518255600182019150602085019450602081019050610907565b868310156109495784890151610945601f891682610852565b8355505b6001600288020188555050505b505050505050565b600081905092915050565b60008190508160005260206000209050919050565b6000815461098b816106a5565b610995818661095e565b945060018216600081146109b057600181146109c5576109f8565b60ff19831686528115158202860193506109f8565b6109ce85610969565b60005b838110156109f0578154818901526001820191506020810190506109d1565b838801955050505b50505092915050565b6000610a0d828461097e565b91508190509291505056fea26469706673582212209661abcbb62f0150d48dfbf1cd6cf956e4d490eaa33a84ba3752ca91d7ed7b5464736f6c634300081c0033",
  "linkReferences": {},
  "deployedLinkReferences": {}
}